{
  "_format": "hh-sol-artifact-1",
  "contractName": "JumpCrossCoupon",
  "sourceName": "contracts/JumpCrossCoupon.sol",
  "abi": [
    {
      "inputs": [],
      "stateMutability": "nonpayable",
      "type": "constructor"
    },
    {
      "inputs": [
        {
          "internalType": "address",
          "name": "spender",
          "type": "address"
        },
        {
          "internalType": "uint256",
          "name": "allowance",
          "type": "uint256"
        },
        {
          "internalType": "uint256",
          "name": "needed",
          "type": "uint256"
        }
      ],
      "name": "ERC20InsufficientAllowance",
      "type": "error"
    },
    {
      "inputs": [
        {
          "internalType": "address",
          "name": "sender",
          "type": "address"
        },
        {
          "internalType": "uint256",
          "name": "balance",
          "type": "uint256"
        },
        {
          "internalType": "uint256",
          "name": "needed",
          "type": "uint256"
        }
      ],
      "name": "ERC20InsufficientBalance",
      "type": "error"
    },
    {
      "inputs": [
        {
          "internalType": "address",
          "name": "approver",
          "type": "address"
        }
      ],
      "name": "ERC20InvalidApprover",
      "type": "error"
    },
    {
      "inputs": [
        {
          "internalType": "address",
          "name": "receiver",
          "type": "address"
        }
      ],
      "name": "ERC20InvalidReceiver",
      "type": "error"
    },
    {
      "inputs": [
        {
          "internalType": "address",
          "name": "sender",
          "type": "address"
        }
      ],
      "name": "ERC20InvalidSender",
      "type": "error"
    },
    {
      "inputs": [
        {
          "internalType": "address",
          "name": "spender",
          "type": "address"
        }
      ],
      "name": "ERC20InvalidSpender",
      "type": "error"
    },
    {
      "inputs": [
        {
          "internalType": "uint256",
          "name": "required",
          "type": "uint256"
        },
        {
          "internalType": "uint256",
          "name": "inputed",
          "type": "uint256"
        }
      ],
      "name": "InsufficientFundsError",
      "type": "error"
    },
    {
      "inputs": [
        {
          "internalType": "uint256",
          "name": "inputed",
          "type": "uint256"
        }
      ],
      "name": "InvalidExchangeAmountError",
      "type": "error"
    },
    {
      "inputs": [
        {
          "internalType": "address",
          "name": "owner",
          "type": "address"
        }
      ],
      "name": "OwnableInvalidOwner",
      "type": "error"
    },
    {
      "inputs": [
        {
          "internalType": "address",
          "name": "account",
          "type": "address"
        }
      ],
      "name": "OwnableUnauthorizedAccount",
      "type": "error"
    },
    {
      "inputs": [],
      "name": "ReentrancyGuardReentrantCall",
      "type": "error"
    },
    {
      "inputs": [
        {
          "internalType": "string",
          "name": "message",
          "type": "string"
        }
      ],
      "name": "SetProtocolFeeError",
      "type": "error"
    },
    {
      "anonymous": false,
      "inputs": [
        {
          "indexed": true,
          "internalType": "address",
          "name": "owner",
          "type": "address"
        },
        {
          "indexed": true,
          "internalType": "address",
          "name": "spender",
          "type": "address"
        },
        {
          "indexed": false,
          "internalType": "uint256",
          "name": "value",
          "type": "uint256"
        }
      ],
      "name": "Approval",
      "type": "event"
    },
    {
      "anonymous": false,
      "inputs": [
        {
          "indexed": true,
          "internalType": "address",
          "name": "previousOwner",
          "type": "address"
        },
        {
          "indexed": true,
          "internalType": "address",
          "name": "newOwner",
          "type": "address"
        }
      ],
      "name": "OwnershipTransferred",
      "type": "event"
    },
    {
      "anonymous": false,
      "inputs": [
        {
          "indexed": true,
          "internalType": "address",
          "name": "from",
          "type": "address"
        },
        {
          "indexed": true,
          "internalType": "address",
          "name": "to",
          "type": "address"
        },
        {
          "indexed": false,
          "internalType": "uint256",
          "name": "value",
          "type": "uint256"
        }
      ],
      "name": "Transfer",
      "type": "event"
    },
    {
      "anonymous": false,
      "inputs": [
        {
          "indexed": false,
          "internalType": "uint256",
          "name": "protocolFeeFactor",
          "type": "uint256"
        },
        {
          "indexed": false,
          "internalType": "uint256",
          "name": "protocolFeeScale",
          "type": "uint256"
        },
        {
          "indexed": false,
          "internalType": "uint256",
          "name": "protocolExitMultiplier",
          "type": "uint256"
        }
      ],
      "name": "UpdateProtocolFee",
      "type": "event"
    },
    {
      "inputs": [],
      "name": "EXCHANGE_RATE",
      "outputs": [
        {
          "internalType": "uint256",
          "name": "",
          "type": "uint256"
        }
      ],
      "stateMutability": "view",
      "type": "function"
    },
    {
      "inputs": [],
      "name": "PROTOCOL_FEE_UPPER_LIMIT",
      "outputs": [
        {
          "internalType": "uint256",
          "name": "",
          "type": "uint256"
        }
      ],
      "stateMutability": "view",
      "type": "function"
    },
    {
      "inputs": [
        {
          "internalType": "address",
          "name": "owner",
          "type": "address"
        },
        {
          "internalType": "address",
          "name": "spender",
          "type": "address"
        }
      ],
      "name": "allowance",
      "outputs": [
        {
          "internalType": "uint256",
          "name": "",
          "type": "uint256"
        }
      ],
      "stateMutability": "view",
      "type": "function"
    },
    {
      "inputs": [
        {
          "internalType": "address",
          "name": "spender",
          "type": "address"
        },
        {
          "internalType": "uint256",
          "name": "value",
          "type": "uint256"
        }
      ],
      "name": "approve",
      "outputs": [
        {
          "internalType": "bool",
          "name": "",
          "type": "bool"
        }
      ],
      "stateMutability": "nonpayable",
      "type": "function"
    },
    {
      "inputs": [
        {
          "internalType": "address",
          "name": "account",
          "type": "address"
        }
      ],
      "name": "balanceOf",
      "outputs": [
        {
          "internalType": "uint256",
          "name": "",
          "type": "uint256"
        }
      ],
      "stateMutability": "view",
      "type": "function"
    },
    {
      "inputs": [],
      "name": "claimRevenue",
      "outputs": [],
      "stateMutability": "nonpayable",
      "type": "function"
    },
    {
      "inputs": [],
      "name": "decimals",
      "outputs": [
        {
          "internalType": "uint8",
          "name": "",
          "type": "uint8"
        }
      ],
      "stateMutability": "pure",
      "type": "function"
    },
    {
      "inputs": [],
      "name": "name",
      "outputs": [
        {
          "internalType": "string",
          "name": "",
          "type": "string"
        }
      ],
      "stateMutability": "view",
      "type": "function"
    },
    {
      "inputs": [],
      "name": "owner",
      "outputs": [
        {
          "internalType": "address",
          "name": "",
          "type": "address"
        }
      ],
      "stateMutability": "view",
      "type": "function"
    },
    {
      "inputs": [
        {
          "internalType": "uint256",
          "name": "amount",
          "type": "uint256"
        }
      ],
      "name": "pawn",
      "outputs": [],
      "stateMutability": "payable",
      "type": "function"
    },
    {
      "inputs": [],
      "name": "protocolExitMultiplier",
      "outputs": [
        {
          "internalType": "uint256",
          "name": "",
          "type": "uint256"
        }
      ],
      "stateMutability": "view",
      "type": "function"
    },
    {
      "inputs": [],
      "name": "protocolFeeFactor",
      "outputs": [
        {
          "internalType": "uint256",
          "name": "",
          "type": "uint256"
        }
      ],
      "stateMutability": "view",
      "type": "function"
    },
    {
      "inputs": [],
      "name": "protocolFeeScale",
      "outputs": [
        {
          "internalType": "uint256",
          "name": "",
          "type": "uint256"
        }
      ],
      "stateMutability": "view",
      "type": "function"
    },
    {
      "inputs": [],
      "name": "protocolRevenue",
      "outputs": [
        {
          "internalType": "uint256",
          "name": "",
          "type": "uint256"
        }
      ],
      "stateMutability": "view",
      "type": "function"
    },
    {
      "inputs": [
        {
          "internalType": "uint256",
          "name": "amount",
          "type": "uint256"
        }
      ],
      "name": "redeem",
      "outputs": [],
      "stateMutability": "nonpayable",
      "type": "function"
    },
    {
      "inputs": [],
      "name": "renounceOwnership",
      "outputs": [],
      "stateMutability": "nonpayable",
      "type": "function"
    },
    {
      "inputs": [],
      "name": "symbol",
      "outputs": [
        {
          "internalType": "string",
          "name": "",
          "type": "string"
        }
      ],
      "stateMutability": "view",
      "type": "function"
    },
    {
      "inputs": [],
      "name": "totalSupply",
      "outputs": [
        {
          "internalType": "uint256",
          "name": "",
          "type": "uint256"
        }
      ],
      "stateMutability": "view",
      "type": "function"
    },
    {
      "inputs": [
        {
          "internalType": "address",
          "name": "to",
          "type": "address"
        },
        {
          "internalType": "uint256",
          "name": "value",
          "type": "uint256"
        }
      ],
      "name": "transfer",
      "outputs": [
        {
          "internalType": "bool",
          "name": "",
          "type": "bool"
        }
      ],
      "stateMutability": "nonpayable",
      "type": "function"
    },
    {
      "inputs": [
        {
          "internalType": "address",
          "name": "from",
          "type": "address"
        },
        {
          "internalType": "address",
          "name": "to",
          "type": "address"
        },
        {
          "internalType": "uint256",
          "name": "value",
          "type": "uint256"
        }
      ],
      "name": "transferFrom",
      "outputs": [
        {
          "internalType": "bool",
          "name": "",
          "type": "bool"
        }
      ],
      "stateMutability": "nonpayable",
      "type": "function"
    },
    {
      "inputs": [
        {
          "internalType": "address",
          "name": "newOwner",
          "type": "address"
        }
      ],
      "name": "transferOwnership",
      "outputs": [],
      "stateMutability": "nonpayable",
      "type": "function"
    },
    {
      "inputs": [
        {
          "internalType": "uint256",
          "name": "_protocolFeeFactor",
          "type": "uint256"
        },
        {
          "internalType": "uint256",
          "name": "_protocolFeeDecimals",
          "type": "uint256"
        },
        {
          "internalType": "uint256",
          "name": "_protocolExitMultiplier",
          "type": "uint256"
        }
      ],
      "name": "updateProtocolFee",
      "outputs": [],
      "stateMutability": "nonpayable",
      "type": "function"
    }
  ],
  "bytecode": "0x608060405234801561000f575f80fd5b50336040518060400160405280600f81526020016e253ab6b821b937b9b9a1b7bab837b760891b815250604051806040016040528060038152602001624a434360e81b815250816003908161006491906101af565b50600461007182826101af565b5050506001600160a01b0381166100a157604051631e4fbdf760e01b81525f600482015260240160405180910390fd5b6100aa816100c6565b506001600655600860078190556103e89055600260095561026e565b600580546001600160a01b038381166001600160a01b0319831681179093556040519116919082907f8be0079c531659141344cd1fd0a4f28419497f9722a3daafe3b4186f6b6457e0905f90a35050565b634e487b7160e01b5f52604160045260245ffd5b600181811c9082168061013f57607f821691505b60208210810361015d57634e487b7160e01b5f52602260045260245ffd5b50919050565b601f8211156101aa57805f5260205f20601f840160051c810160208510156101885750805b601f840160051c820191505b818110156101a7575f8155600101610194565b50505b505050565b81516001600160401b038111156101c8576101c8610117565b6101dc816101d6845461012b565b84610163565b602080601f83116001811461020f575f84156101f85750858301515b5f19600386901b1c1916600185901b178555610266565b5f85815260208120601f198616915b8281101561023d5788860151825594840194600190910190840161021e565b508582101561025a57878501515f19600388901b60f8161c191681555b505060018460011b0185555b505050505050565b610fc68061027b5f395ff3fe608060405260043610610131575f3560e01c8063715018a6116100a8578063982b50471161006d578063982b50471461030f578063a9059cbb14610324578063db006a7514610343578063dd62ed3e14610362578063f2fde38b146103a6578063fb49b207146103c5575f80fd5b8063715018a61461029657806372f90a9d146102aa5780637af3816c146102bf5780638da5cb5b146102d457806395d89b41146102fb575f80fd5b806318160ddd116100f957806318160ddd146101e057806323b872dd146101f4578063313ce5671461021357806347e75cfe1461022d578063564f4f761461024e57806370a0823114610262575f80fd5b806301a1137b1461013557806306fdde0314610162578063095ea7b31461018357806311e3bdde146101b257806314a8bd0d146101c7575b5f80fd5b348015610140575f80fd5b5061014f662386f26fc1000081565b6040519081526020015b60405180910390f35b34801561016d575f80fd5b506101766103d8565b6040516101599190610cce565b34801561018e575f80fd5b506101a261019d366004610d1e565b610468565b6040519015158152602001610159565b3480156101bd575f80fd5b5061014f60075481565b3480156101d2575f80fd5b5061014f650cbba106e00081565b3480156101eb575f80fd5b5060025461014f565b3480156101ff575f80fd5b506101a261020e366004610d46565b610481565b34801561021e575f80fd5b506040515f8152602001610159565b348015610238575f80fd5b5061024c610247366004610d7f565b6104a4565b005b348015610259575f80fd5b5061024c6104d1565b34801561026d575f80fd5b5061014f61027c366004610da8565b6001600160a01b03165f9081526020819052604090205490565b3480156102a1575f80fd5b5061024c610512565b3480156102b5575f80fd5b5061014f60095481565b3480156102ca575f80fd5b5061014f600a5481565b3480156102df575f80fd5b506005546040516001600160a01b039091168152602001610159565b348015610306575f80fd5b50610176610525565b34801561031a575f80fd5b5061014f60085481565b34801561032f575f80fd5b506101a261033e366004610d1e565b610534565b34801561034e575f80fd5b5061024c61035d366004610dc8565b610541565b34801561036d575f80fd5b5061014f61037c366004610ddf565b6001600160a01b039182165f90815260016020908152604080832093909416825291909152205490565b3480156103b1575f80fd5b5061024c6103c0366004610da8565b61065a565b61024c6103d3366004610dc8565b610694565b6060600380546103e790610e10565b80601f016020809104026020016040519081016040528092919081815260200182805461041390610e10565b801561045e5780601f106104355761010080835404028352916020019161045e565b820191905f5260205f20905b81548152906001019060200180831161044157829003601f168201915b5050505050905090565b5f33610475818585610785565b60019150505b92915050565b5f3361048e858285610797565b61049985858561080c565b506001949350505050565b6104ac610869565b6104b7838383610896565b60078390556104c782600a610f3c565b6008556009555050565b6104d9610869565b600a80545f918290556040519091339183156108fc0291849190818181858888f1935050505015801561050e573d5f803e3d5ffd5b5050565b61051a610869565b6105235f6109f3565b565b6060600480546103e790610e10565b5f3361047581858561080c565b610549610a44565b5f81116105715760405163ec44dcbd60e01b8152600481018290526024015b60405180910390fd5b61057b3382610a6e565b5f670de0b6b3a7640000610595650cbba106e00084610f47565b6105a790670de0b6b3a7640000610f47565b6105b19190610f5e565b90505f600854600954600754846105c89190610f47565b6105d29190610f47565b6105dc9190610f5e565b90505f80600954662386f26fc100006105f59190610f47565b905080831115610603578092505b828403915082600a5f8282546106199190610f7d565b9091555050604051339083156108fc029084905f818181858888f19350505050158015610648573d5f803e3d5ffd5b50505050506106576001600655565b50565b610662610869565b6001600160a01b03811661068b57604051631e4fbdf760e01b81525f6004820152602401610568565b610657816109f3565b5f81116106b75760405163ec44dcbd60e01b815260048101829052602401610568565b5f670de0b6b3a76400006106d1650cbba106e00084610f47565b6106e390670de0b6b3a7640000610f47565b6106ed9190610f5e565b90505f600854600754836107019190610f47565b61070b9190610f5e565b90505f662386f26fc1000082111561072857662386f26fc1000091505b6107328284610f7d565b90508034101561075e57604051638cdd908360e01b815260048101829052346024820152604401610568565b81600a5f82825461076f9190610f7d565b9091555061077f90503385610aa2565b50505050565b6107928383836001610ad6565b505050565b6001600160a01b038381165f908152600160209081526040808320938616835292905220545f19811461077f57818110156107fe57604051637dc7a0d960e11b81526001600160a01b03841660048201526024810182905260448101839052606401610568565b61077f84848484035f610ad6565b6001600160a01b03831661083557604051634b637e8f60e11b81525f6004820152602401610568565b6001600160a01b03821661085e5760405163ec442f0560e01b81525f6004820152602401610568565b610792838383610ba8565b6005546001600160a01b031633146105235760405163118cdaa760e01b8152336004820152602401610568565b60018310806108a55750600983115b156108f35760405163305cd7d360e11b815260206004820152601b60248201527f496e76616c69642070726f746f636f6c2066656520666163746f7200000000006044820152606401610568565b60028210806109025750601282115b156109505760405163305cd7d360e11b815260206004820152601d60248201527f496e76616c69642070726f746f636f6c2066656520646563696d616c730000006044820152606401610568565b600181108061095f5750600581115b156109ad5760405163305cd7d360e11b815260206004820181905260248201527f496e76616c69642070726f746f636f6c2065786974206d756c7469706c6965726044820152606401610568565b60408051848152602081018490529081018290527fb03cba1fd26bee931da9fac9c0a6b1ec951fa21622fb17480acb831a2a83ed6d9060600160405180910390a1505050565b600580546001600160a01b038381166001600160a01b0319831681179093556040519116919082907f8be0079c531659141344cd1fd0a4f28419497f9722a3daafe3b4186f6b6457e0905f90a35050565b600260065403610a6757604051633ee5aeb560e01b815260040160405180910390fd5b6002600655565b6001600160a01b038216610a9757604051634b637e8f60e11b81525f6004820152602401610568565b61050e825f83610ba8565b6001600160a01b038216610acb5760405163ec442f0560e01b81525f6004820152602401610568565b61050e5f8383610ba8565b6001600160a01b038416610aff5760405163e602df0560e01b81525f6004820152602401610568565b6001600160a01b038316610b2857604051634a1406b160e11b81525f6004820152602401610568565b6001600160a01b038085165f908152600160209081526040808320938716835292905220829055801561077f57826001600160a01b0316846001600160a01b03167f8c5be1e5ebec7d5bd14f71427d1e84f3dd0314c0f7b2291e5b200ac8c7c3b92584604051610b9a91815260200190565b60405180910390a350505050565b6001600160a01b038316610bd2578060025f828254610bc79190610f7d565b90915550610c429050565b6001600160a01b0383165f9081526020819052604090205481811015610c245760405163391434e360e21b81526001600160a01b03851660048201526024810182905260448101839052606401610568565b6001600160a01b0384165f9081526020819052604090209082900390555b6001600160a01b038216610c5e57600280548290039055610c7c565b6001600160a01b0382165f9081526020819052604090208054820190555b816001600160a01b0316836001600160a01b03167fddf252ad1be2c89b69c2b068fc378daa952ba7f163c4a11628f55a4df523b3ef83604051610cc191815260200190565b60405180910390a3505050565b602081525f82518060208401528060208501604085015e5f604082850101526040601f19601f83011684010191505092915050565b80356001600160a01b0381168114610d19575f80fd5b919050565b5f8060408385031215610d2f575f80fd5b610d3883610d03565b946020939093013593505050565b5f805f60608486031215610d58575f80fd5b610d6184610d03565b9250610d6f60208501610d03565b9150604084013590509250925092565b5f805f60608486031215610d91575f80fd5b505081359360208301359350604090920135919050565b5f60208284031215610db8575f80fd5b610dc182610d03565b9392505050565b5f60208284031215610dd8575f80fd5b5035919050565b5f8060408385031215610df0575f80fd5b610df983610d03565b9150610e0760208401610d03565b90509250929050565b600181811c90821680610e2457607f821691505b602082108103610e4257634e487b7160e01b5f52602260045260245ffd5b50919050565b634e487b7160e01b5f52601160045260245ffd5b600181815b80851115610e9657815f1904821115610e7c57610e7c610e48565b80851615610e8957918102915b93841c9390800290610e61565b509250929050565b5f82610eac5750600161047b565b81610eb857505f61047b565b8160018114610ece5760028114610ed857610ef4565b600191505061047b565b60ff841115610ee957610ee9610e48565b50506001821b61047b565b5060208310610133831016604e8410600b8410161715610f17575081810a61047b565b610f218383610e5c565b805f1904821115610f3457610f34610e48565b029392505050565b5f610dc18383610e9e565b808202811582820484141761047b5761047b610e48565b5f82610f7857634e487b7160e01b5f52601260045260245ffd5b500490565b8082018082111561047b5761047b610e4856fea2646970667358221220bf675a0b37dd51e2bebfa4213d47ef775d3dd41dc44bdfc4ba4c2f8772acc58464736f6c63430008190033",
  "linkReferences": {},
  "deployedLinkReferences": {}
}